{
    "contractName": "TokenBalanceChecker",
    "abi": [
        {
            "stateMutability": "payable",
            "type": "fallback",
            "payable": true
        },
        {
            "stateMutability": "payable",
            "type": "receive",
            "payable": true
        },
        {
            "inputs": [
                {
                    "internalType": "address",
                    "name": "userAddr",
                    "type": "address"
                },
                {
                    "internalType": "address",
                    "name": "tokenAddr",
                    "type": "address"
                }
            ],
            "name": "getTokenBalance",
            "outputs": [
                {
                    "internalType": "uint256",
                    "name": "",
                    "type": "uint256"
                }
            ],
            "stateMutability": "view",
            "type": "function",
            "constant": true
        },
        {
            "inputs": [
                {
                    "internalType": "address",
                    "name": "userAddr",
                    "type": "address"
                },
                {
                    "internalType": "address[]",
                    "name": "tokenAddrs",
                    "type": "address[]"
                }
            ],
            "name": "balance",
            "outputs": [
                {
                    "internalType": "uint256[]",
                    "name": "",
                    "type": "uint256[]"
                }
            ],
            "stateMutability": "view",
            "type": "function",
            "constant": true
        }
    ],
    "bytecode": "0x608060405234801561001057600080fd5b506104d7806100206000396000f3fe60806040526004361061002d5760003560e01c80632631d58c1461006b578063c489744b146100a157610053565b366100535760405162461bcd60e51b815260040161004a90610405565b60405180910390fd5b60405162461bcd60e51b815260040161004a90610405565b34801561007757600080fd5b5061008b6100863660046102c9565b6100cf565b60405161009891906103c1565b60405180910390f35b3480156100ad57600080fd5b506100c16100bc366004610296565b6101e5565b604051908152602001610098565b60606000825167ffffffffffffffff8111156100ed576100ed61048b565b604051908082528060200260200182016040528015610116578160200160208202803683370190505b50905060005b83518110156101db5760006001600160a01b031684828151811061014257610142610475565b60200260200101516001600160a01b0316141561018757846001600160a01b03163182828151811061017657610176610475565b6020026020010181815250506101c9565b6101aa8585838151811061019d5761019d610475565b60200260200101516101e5565b8282815181106101bc576101bc610475565b6020026020010181815250505b806101d38161044c565b91505061011c565b5090505b92915050565b6000813b8015610270576040516370a0823160e01b81526001600160a01b0385811660048301528416906370a082319060240160206040518083038186803b15801561023057600080fd5b505afa158015610244573d6000803e3d6000fd5b505050506040513d601f19601f8201168201806040525081019061026891906103a8565b9150506101df565b60009150506101df565b80356001600160a01b038116811461029157600080fd5b919050565b600080604083850312156102a957600080fd5b6102b28361027a565b91506102c06020840161027a565b90509250929050565b600080604083850312156102dc57600080fd5b6102e58361027a565b915060208084013567ffffffffffffffff8082111561030357600080fd5b818601915086601f83011261031757600080fd5b8135818111156103295761032961048b565b8060051b604051601f19603f8301168101818110858211171561034e5761034e61048b565b604052828152858101935084860182860187018b101561036d57600080fd5b600095505b83861015610397576103838161027a565b855260019590950194938601938601610372565b508096505050505050509250929050565b6000602082840312156103ba57600080fd5b5051919050565b6020808252825182820181905260009190848201906040850190845b818110156103f9578351835292840192918401916001016103dd565b50909695505050505050565b60208082526027908201527f42616c616e6365436865636b657220646f6573206e6f7420616363657074207060408201526661796d656e747360c81b606082015260800190565b600060001982141561046e57634e487b7160e01b600052601160045260246000fd5b5060010190565b634e487b7160e01b600052603260045260246000fd5b634e487b7160e01b600052604160045260246000fdfea264697066735822122010d5f3827e997caf8c2db4a8ca28f96e6f90818cbdc7f46d832a5762c3e5d06b64736f6c63430008060033",
    "immutableReferences": {},
    "source": "// SPDX-License-Identifier: MIT\n\npragma solidity ^0.8.6;\n\n// address = 0x0 when get eth\n\n// ==============================\n// Test case :\n// 1. Call temp account : 0xA0b86991c6218b36c1d19D4a2e9Eb0cE3606eB48\n// 2. Set token address to non smart contract address\n// 3. Set token address to non ERC20 smart contract address\n// ==============================\n\nabstract contract Token {\n    function balanceOf(address) public view virtual returns (uint256);\n}\n\ncontract TokenBalanceChecker {\n    // prevent someone paying to this contract\n    fallback() external payable {\n        revert(\"BalanceChecker does not accept payments\");\n    }\n\n    receive() external payable {\n        revert(\"BalanceChecker does not accept payments\");\n    }\n\n    function getTokenBalance(address userAddr, address tokenAddr)\n        public\n        view\n        returns (uint256)\n    {\n        uint256 tokenCodeSize;\n\n        // check whether address is smart contract\n        // if 0 : normal address\n        // if > 0 : smart contract\n        assembly {\n            tokenCodeSize := extcodesize(tokenAddr)\n        }\n\n        //0x70a08231 : signature of balanceOf function\n        // if (tokenCodeSize > 0 && tokenAddr.call(bytes4(0x70a08231), userAddr)) {\n        if (tokenCodeSize > 0) {\n            // smart contract\n            return Token(tokenAddr).balanceOf(userAddr);\n        } else {\n            return 0;\n        }\n    }\n\n    // calldata :\n    function balance(address userAddr, address[] memory tokenAddrs)\n        external\n        view\n        returns (uint256[] memory)\n    {\n        uint256[] memory addressBalance = new uint256[](tokenAddrs.length);\n\n        for (uint256 i = 0; i < tokenAddrs.length; i++) {\n            if (tokenAddrs[i] == address(0x0)) {\n                // is eth\n                addressBalance[i] = userAddr.balance;\n            } else {\n                addressBalance[i] = getTokenBalance(userAddr, tokenAddrs[i]);\n            }\n        }\n\n        return addressBalance;\n    }\n}\n",
    "sourcePath": "/Users/joker/Documents/Strangers-United/blockchain/smart-contract/contracts/TokenBalanceChecker.sol",
    "compiler": {
        "name": "solc",
        "version": "0.8.6+commit.11564f7e.Emscripten.clang"
    },
    "schemaVersion": "3.4.2",
    "updatedAt": "2021-10-01T01:53:18.731Z",
    "networkType": "ethereum",
    "devdoc": {
        "kind": "dev",
        "methods": {},
        "version": 1
    },
    "userdoc": {
        "kind": "user",
        "methods": {},
        "version": 1
    }
}