{
  "contractName": "OpenOracleFramework",
  "abi": [
    {
      "inputs": [],
      "stateMutability": "nonpayable",
      "type": "constructor"
    },
    {
      "anonymous": false,
      "inputs": [
        {
          "indexed": false,
          "internalType": "address[]",
          "name": "signers",
          "type": "address[]"
        },
        {
          "indexed": false,
          "internalType": "uint256",
          "name": "signerThreshold",
          "type": "uint256"
        },
        {
          "indexed": false,
          "internalType": "address",
          "name": "payout",
          "type": "address"
        }
      ],
      "name": "contractSetup",
      "type": "event"
    },
    {
      "anonymous": false,
      "inputs": [
        {
          "indexed": false,
          "internalType": "string",
          "name": "name",
          "type": "string"
        },
        {
          "indexed": false,
          "internalType": "string",
          "name": "description",
          "type": "string"
        },
        {
          "indexed": false,
          "internalType": "uint256",
          "name": "decimal",
          "type": "uint256"
        },
        {
          "indexed": false,
          "internalType": "uint256",
          "name": "timeslot",
          "type": "uint256"
        },
        {
          "indexed": false,
          "internalType": "uint256",
          "name": "feedId",
          "type": "uint256"
        },
        {
          "indexed": false,
          "internalType": "uint256",
          "name": "mode",
          "type": "uint256"
        },
        {
          "indexed": false,
          "internalType": "uint256",
          "name": "price",
          "type": "uint256"
        }
      ],
      "name": "feedAdded",
      "type": "event"
    },
    {
      "anonymous": false,
      "inputs": [
        {
          "indexed": false,
          "internalType": "uint256",
          "name": "feedId",
          "type": "uint256"
        },
        {
          "indexed": false,
          "internalType": "uint256",
          "name": "roundId",
          "type": "uint256"
        },
        {
          "indexed": false,
          "internalType": "uint256",
          "name": "value",
          "type": "uint256"
        },
        {
          "indexed": false,
          "internalType": "uint256",
          "name": "timestamp",
          "type": "uint256"
        },
        {
          "indexed": false,
          "internalType": "address",
          "name": "signer",
          "type": "address"
        }
      ],
      "name": "feedSigned",
      "type": "event"
    },
    {
      "anonymous": false,
      "inputs": [
        {
          "indexed": false,
          "internalType": "uint256",
          "name": "feedId",
          "type": "uint256"
        },
        {
          "indexed": false,
          "internalType": "uint256",
          "name": "supportvalue",
          "type": "uint256"
        }
      ],
      "name": "feedSupported",
      "type": "event"
    },
    {
      "anonymous": false,
      "inputs": [
        {
          "indexed": false,
          "internalType": "uint256",
          "name": "value",
          "type": "uint256"
        }
      ],
      "name": "newFee",
      "type": "event"
    },
    {
      "anonymous": false,
      "inputs": [
        {
          "indexed": false,
          "internalType": "uint256",
          "name": "cost",
          "type": "uint256"
        },
        {
          "indexed": false,
          "internalType": "uint256",
          "name": "feed",
          "type": "uint256"
        }
      ],
      "name": "newFeedCost",
      "type": "event"
    },
    {
      "anonymous": false,
      "inputs": [
        {
          "indexed": false,
          "internalType": "address",
          "name": "payout",
          "type": "address"
        }
      ],
      "name": "newPayoutAddress",
      "type": "event"
    },
    {
      "anonymous": false,
      "inputs": [
        {
          "indexed": false,
          "internalType": "uint256",
          "name": "proposalId",
          "type": "uint256"
        },
        {
          "indexed": false,
          "internalType": "uint256",
          "name": "uintValue",
          "type": "uint256"
        },
        {
          "indexed": false,
          "internalType": "address",
          "name": "addressValue",
          "type": "address"
        },
        {
          "indexed": false,
          "internalType": "uint256",
          "name": "oracleType",
          "type": "uint256"
        },
        {
          "indexed": false,
          "internalType": "address",
          "name": "proposer",
          "type": "address"
        }
      ],
      "name": "newProposal",
      "type": "event"
    },
    {
      "anonymous": false,
      "inputs": [
        {
          "indexed": false,
          "internalType": "uint256",
          "name": "mode",
          "type": "uint256"
        },
        {
          "indexed": false,
          "internalType": "uint256",
          "name": "feed",
          "type": "uint256"
        }
      ],
      "name": "newRevenueMode",
      "type": "event"
    },
    {
      "anonymous": false,
      "inputs": [
        {
          "indexed": false,
          "internalType": "address",
          "name": "signer",
          "type": "address"
        }
      ],
      "name": "newSigner",
      "type": "event"
    },
    {
      "anonymous": false,
      "inputs": [
        {
          "indexed": false,
          "internalType": "uint256",
          "name": "value",
          "type": "uint256"
        }
      ],
      "name": "newThreshold",
      "type": "event"
    },
    {
      "anonymous": false,
      "inputs": [
        {
          "indexed": false,
          "internalType": "uint256",
          "name": "proposalId",
          "type": "uint256"
        },
        {
          "indexed": false,
          "internalType": "address",
          "name": "signer",
          "type": "address"
        }
      ],
      "name": "proposalSigned",
      "type": "event"
    },
    {
      "anonymous": false,
      "inputs": [
        {
          "indexed": false,
          "internalType": "uint256",
          "name": "value",
          "type": "uint256"
        },
        {
          "indexed": false,
          "internalType": "address",
          "name": "sender",
          "type": "address"
        }
      ],
      "name": "routerFeeTaken",
      "type": "event"
    },
    {
      "anonymous": false,
      "inputs": [
        {
          "indexed": false,
          "internalType": "address",
          "name": "signer",
          "type": "address"
        }
      ],
      "name": "signerRemoved",
      "type": "event"
    },
    {
      "anonymous": false,
      "inputs": [
        {
          "indexed": false,
          "internalType": "uint256",
          "name": "newPass",
          "type": "uint256"
        }
      ],
      "name": "subscriptionPassPriceUpdated",
      "type": "event"
    },
    {
      "inputs": [],
      "name": "factoryContract",
      "outputs": [
        {
          "internalType": "address",
          "name": "",
          "type": "address"
        }
      ],
      "stateMutability": "view",
      "type": "function"
    },
    {
      "inputs": [
        {
          "internalType": "uint256",
          "name": "",
          "type": "uint256"
        }
      ],
      "name": "feedSupport",
      "outputs": [
        {
          "internalType": "uint256",
          "name": "",
          "type": "uint256"
        }
      ],
      "stateMutability": "view",
      "type": "function"
    },
    {
      "inputs": [],
      "name": "payoutAddress",
      "outputs": [
        {
          "internalType": "address payable",
          "name": "",
          "type": "address"
        }
      ],
      "stateMutability": "view",
      "type": "function"
    },
    {
      "inputs": [
        {
          "internalType": "uint256",
          "name": "",
          "type": "uint256"
        }
      ],
      "name": "proposalList",
      "outputs": [
        {
          "internalType": "uint256",
          "name": "uintValue",
          "type": "uint256"
        },
        {
          "internalType": "address",
          "name": "addressValue",
          "type": "address"
        },
        {
          "internalType": "address",
          "name": "proposer",
          "type": "address"
        },
        {
          "internalType": "uint256",
          "name": "proposalType",
          "type": "uint256"
        },
        {
          "internalType": "uint256",
          "name": "proposalFeedId",
          "type": "uint256"
        },
        {
          "internalType": "uint256",
          "name": "proposalActive",
          "type": "uint256"
        }
      ],
      "stateMutability": "view",
      "type": "function"
    },
    {
      "inputs": [],
      "name": "signerLength",
      "outputs": [
        {
          "internalType": "uint256",
          "name": "",
          "type": "uint256"
        }
      ],
      "stateMutability": "view",
      "type": "function"
    },
    {
      "inputs": [],
      "name": "signerThreshold",
      "outputs": [
        {
          "internalType": "uint256",
          "name": "",
          "type": "uint256"
        }
      ],
      "stateMutability": "view",
      "type": "function"
    },
    {
      "inputs": [
        {
          "internalType": "uint256",
          "name": "",
          "type": "uint256"
        }
      ],
      "name": "signers",
      "outputs": [
        {
          "internalType": "address",
          "name": "",
          "type": "address"
        }
      ],
      "stateMutability": "view",
      "type": "function"
    },
    {
      "inputs": [],
      "name": "subscriptionPassPrice",
      "outputs": [
        {
          "internalType": "uint256",
          "name": "",
          "type": "uint256"
        }
      ],
      "stateMutability": "view",
      "type": "function"
    },
    {
      "inputs": [
        {
          "internalType": "address[]",
          "name": "signers_",
          "type": "address[]"
        },
        {
          "internalType": "uint256",
          "name": "signerThreshold_",
          "type": "uint256"
        },
        {
          "internalType": "address payable",
          "name": "payoutAddress_",
          "type": "address"
        },
        {
          "internalType": "uint256",
          "name": "subscriptionPassPrice_",
          "type": "uint256"
        },
        {
          "internalType": "address",
          "name": "factoryContract_",
          "type": "address"
        }
      ],
      "name": "initialize",
      "outputs": [],
      "stateMutability": "nonpayable",
      "type": "function"
    },
    {
      "inputs": [
        {
          "internalType": "uint256[]",
          "name": "feedIDs",
          "type": "uint256[]"
        },
        {
          "internalType": "uint256[]",
          "name": "timestamps",
          "type": "uint256[]"
        }
      ],
      "name": "getHistoricalFeeds",
      "outputs": [
        {
          "internalType": "uint256[]",
          "name": "",
          "type": "uint256[]"
        }
      ],
      "stateMutability": "view",
      "type": "function"
    },
    {
      "inputs": [
        {
          "internalType": "uint256[]",
          "name": "feedIDs",
          "type": "uint256[]"
        }
      ],
      "name": "getFeeds",
      "outputs": [
        {
          "internalType": "uint256[]",
          "name": "",
          "type": "uint256[]"
        },
        {
          "internalType": "uint256[]",
          "name": "",
          "type": "uint256[]"
        },
        {
          "internalType": "uint256[]",
          "name": "",
          "type": "uint256[]"
        }
      ],
      "stateMutability": "view",
      "type": "function"
    },
    {
      "inputs": [
        {
          "internalType": "uint256",
          "name": "feedID",
          "type": "uint256"
        }
      ],
      "name": "getFeed",
      "outputs": [
        {
          "internalType": "uint256",
          "name": "",
          "type": "uint256"
        },
        {
          "internalType": "uint256",
          "name": "",
          "type": "uint256"
        },
        {
          "internalType": "uint256",
          "name": "",
          "type": "uint256"
        }
      ],
      "stateMutability": "view",
      "type": "function"
    },
    {
      "inputs": [],
      "name": "getFeedLength",
      "outputs": [
        {
          "internalType": "uint256",
          "name": "",
          "type": "uint256"
        }
      ],
      "stateMutability": "view",
      "type": "function"
    },
    {
      "inputs": [
        {
          "internalType": "uint256[]",
          "name": "feedIDs",
          "type": "uint256[]"
        }
      ],
      "name": "getFeedList",
      "outputs": [
        {
          "internalType": "string[]",
          "name": "",
          "type": "string[]"
        },
        {
          "internalType": "uint256[]",
          "name": "",
          "type": "uint256[]"
        },
        {
          "internalType": "uint256[]",
          "name": "",
          "type": "uint256[]"
        },
        {
          "internalType": "uint256[]",
          "name": "",
          "type": "uint256[]"
        },
        {
          "internalType": "uint256[]",
          "name": "",
          "type": "uint256[]"
        }
      ],
      "stateMutability": "view",
      "type": "function"
    },
    {
      "inputs": [],
      "name": "withdrawFunds",
      "outputs": [],
      "stateMutability": "nonpayable",
      "type": "function"
    },
    {
      "inputs": [
        {
          "internalType": "string[]",
          "name": "names",
          "type": "string[]"
        },
        {
          "internalType": "string[]",
          "name": "descriptions",
          "type": "string[]"
        },
        {
          "internalType": "uint256[]",
          "name": "decimals",
          "type": "uint256[]"
        },
        {
          "internalType": "uint256[]",
          "name": "timeslots",
          "type": "uint256[]"
        },
        {
          "internalType": "uint256[]",
          "name": "feedCosts",
          "type": "uint256[]"
        },
        {
          "internalType": "uint256[]",
          "name": "revenueModes",
          "type": "uint256[]"
        }
      ],
      "name": "createNewFeeds",
      "outputs": [],
      "stateMutability": "nonpayable",
      "type": "function"
    },
    {
      "inputs": [
        {
          "internalType": "uint256[]",
          "name": "feedIDs",
          "type": "uint256[]"
        },
        {
          "internalType": "uint256[]",
          "name": "values",
          "type": "uint256[]"
        }
      ],
      "name": "submitFeed",
      "outputs": [],
      "stateMutability": "nonpayable",
      "type": "function"
    },
    {
      "inputs": [
        {
          "internalType": "uint256",
          "name": "proposalId",
          "type": "uint256"
        }
      ],
      "name": "signProposal",
      "outputs": [],
      "stateMutability": "nonpayable",
      "type": "function"
    },
    {
      "inputs": [
        {
          "internalType": "uint256",
          "name": "uintValue",
          "type": "uint256"
        },
        {
          "internalType": "address",
          "name": "addressValue",
          "type": "address"
        },
        {
          "internalType": "uint256",
          "name": "proposalType",
          "type": "uint256"
        },
        {
          "internalType": "uint256",
          "name": "feedId",
          "type": "uint256"
        }
      ],
      "name": "createProposal",
      "outputs": [],
      "stateMutability": "nonpayable",
      "type": "function"
    },
    {
      "inputs": [
        {
          "internalType": "uint256[]",
          "name": "feedIDs",
          "type": "uint256[]"
        },
        {
          "internalType": "uint256[]",
          "name": "durations",
          "type": "uint256[]"
        },
        {
          "internalType": "address",
          "name": "buyer",
          "type": "address"
        }
      ],
      "name": "subscribeToFeed",
      "outputs": [],
      "stateMutability": "payable",
      "type": "function"
    },
    {
      "inputs": [
        {
          "internalType": "address",
          "name": "buyer",
          "type": "address"
        },
        {
          "internalType": "uint256",
          "name": "duration",
          "type": "uint256"
        }
      ],
      "name": "buyPass",
      "outputs": [],
      "stateMutability": "payable",
      "type": "function"
    },
    {
      "inputs": [
        {
          "internalType": "uint256[]",
          "name": "feedIds",
          "type": "uint256[]"
        },
        {
          "internalType": "uint256[]",
          "name": "values",
          "type": "uint256[]"
        }
      ],
      "name": "supportFeeds",
      "outputs": [],
      "stateMutability": "payable",
      "type": "function"
    }
  ],
  "bytecode": "0x608060405234801561001057600080fd5b50600080546001600160a01b031916600117905561452e806100336000396000f3fe6080604052600436106101355760003560e01c80638c604296116100ab578063c37219ba1161006f578063c37219ba14610340578063c4c1d0bf14610360578063c6311e3f14610375578063d69d117c146103ce578063de11c94a146103ff578063ecb76d901461041f57600080fd5b80638c604296146102b45780638e486eec146102c75780639da6553b146102dd578063a4a4f3901461030a578063ab2730161461032057600080fd5b80634a45ea5c116100fd5780634a45ea5c146101f25780635b8d02d71461022157806368238181146102415780637f5090041461025457806384f3c58514610274578063882fd782146102a157600080fd5b80630f3c80b21461013a5780632079fb9a1461015c57806324600fc31461019957806330c942e0146101ae578063442a33df146101d2575b600080fd5b34801561014657600080fd5b5061015a610155366004613c9d565b61045a565b005b34801561016857600080fd5b5061017c610177366004613f7b565b61072b565b6040516001600160a01b0390911681526020015b60405180910390f35b3480156101a557600080fd5b5061015a610755565b3480156101ba57600080fd5b506101c460025481565b604051908152602001610190565b3480156101de57600080fd5b5061015a6101ed366004613d71565b610827565b3480156101fe57600080fd5b5061021261020d366004613e65565b610c3b565b60405161019093929190614185565b34801561022d57600080fd5b5060015461017c906001600160a01b031681565b61015a61024f366004613f04565b610dbd565b34801561026057600080fd5b5061015a61026f366004613ea1565b61127a565b34801561028057600080fd5b5061029461028f366004613ea1565b6119da565b6040516101909190614172565b61015a6102af366004613ea1565b611cca565b61015a6102c2366004613c71565b612046565b3480156102d357600080fd5b506101c4600b5481565b3480156102e957600080fd5b506101c46102f8366004613f7b565b60086020526000908152604090205481565b34801561031657600080fd5b506101c460045481565b34801561032c57600080fd5b5061015a61033b366004613f7b565b6122fe565b34801561034c57600080fd5b5061015a61035b366004613f94565b612741565b34801561036c57600080fd5b50600a546101c4565b34801561038157600080fd5b50610395610390366004613f7b565b612c33565b604080519687526001600160a01b03958616602088015293909416928501929092526060840152608083015260a082015260c001610190565b3480156103da57600080fd5b506103ee6103e9366004613e65565b612c86565b6040516101909594939291906140bd565b34801561040b57600080fd5b5060005461017c906001600160a01b031681565b34801561042b57600080fd5b5061043f61043a366004613f7b565b613080565b60408051938452602084019290925290820152606001610190565b6000546001600160a01b0316156104ae5760405162461bcd60e51b8152602060048201526013602482015272185b1c9958591e481a5b9a5d1a585b1a5e9959606a1b60448201526064015b60405180910390fd5b6001600160a01b0381166105045760405162461bcd60e51b815260206004820152601760248201527f666163746f72792063616e206e6f74206265206e756c6c00000000000000000060448201526064016104a5565b836105475760405162461bcd60e51b815260206004820152601360248201527205468726573686f6c642063616e74206265203606c1b60448201526064016104a5565b84518411156105a95760405162461bcd60e51b815260206004820152602860248201527f5468726573686f6c642063616e74206265206d6f7265207468656e207369676e604482015267195c8818dbdd5b9d60c21b60648201526084016104a5565b600080546001600160a01b0319166001600160a01b038316179055600484905584516105dc9060039060208801906139fa565b5060005b6003548110156106bd5760006001600160a01b031660038281548110610608576106086144b7565b6000918252602090912001546001600160a01b0316141561065e5760405162461bcd60e51b815260206004820152601060248201526f4e6f74207a65726f206164647265737360801b60448201526064016104a5565b60016006600060038481548110610677576106776144b7565b6000918252602080832091909101546001600160a01b031683528201929092526040019020805460ff1916911515919091179055806106b581614463565b9150506105e0565b508451600255600180546001600160a01b0319166001600160a01b038516908117909155600b8390556004546040517ff4955da0e7ea6f8c9297d8046c39168f24abc71dd60d47c7e4e2172f28f0c9339261071c928992909190614059565b60405180910390a15050505050565b6003818154811061073b57600080fd5b6000918252602090912001546001600160a01b0316905081565b6001546001600160a01b03166107ec5760005b6003548110156107e95760038181548110610785576107856144b7565b6000918252602090912001546003546001600160a01b03909116906108fc906107ae9047614352565b6040518115909202916000818181858888f193505050501580156107d6573d6000803e3d6000fd5b50806107e181614463565b915050610768565b50565b6001546040516001600160a01b03909116904780156108fc02916000818181858888f193505050501580156107e9573d6000803e3d6000fd5b565b61082f613206565b84518651146108505760405162461bcd60e51b81526004016104a59061424f565b83518551146108715760405162461bcd60e51b81526004016104a59061424f565b82518451146108925760405162461bcd60e51b81526004016104a59061424f565b81518351146108b35760405162461bcd60e51b81526004016104a59061424f565b80518251146108d45760405162461bcd60e51b81526004016104a59061424f565b60005b8651811015610c325760128582815181106108f4576108f46144b7565b6020026020010151111561094a5760405162461bcd60e51b815260206004820152601760248201527f446563696d616c20706c6163657320746f6f206869676800000000000000000060448201526064016104a5565b600084828151811061095e5761095e6144b7565b6020026020010151116109aa5760405162461bcd60e51b8152602060048201526014602482015273054696d65736c6f742063616e6e6f7420626520360641b60448201526064016104a5565b60018282815181106109be576109be6144b7565b60200260200101511115610a145760405162461bcd60e51b815260206004820152601b60248201527f57726f6e6720726576656e75654d6f646520706172616d65746572000000000060448201526064016104a5565b600a6040518060e00160405280898481518110610a3357610a336144b7565b60200260200101518152602001878481518110610a5257610a526144b7565b60200260200101518152602001868481518110610a7157610a716144b7565b602002602001015181526020016000815260200160008152602001848481518110610a9e57610a9e6144b7565b60200260200101518152602001858481518110610abd57610abd6144b7565b602090810291909101810151909152825460018101845560009384529281902082518051939460070290910192610af79284920190613a5b565b506020820151816001015560408201518160020155606082015181600301556080820151816004015560a0820151816005015560c0820151816006015550507f7987e4b97b6de28ab6f19d4724c233a6f4fe564ba5413dc5d74b4c2c7841651a878281518110610b6957610b696144b7565b6020026020010151878381518110610b8357610b836144b7565b6020026020010151878481518110610b9d57610b9d6144b7565b6020026020010151878581518110610bb757610bb76144b7565b60200260200101516001600a80549050610bd191906143c4565b878781518110610be357610be36144b7565b6020026020010151898881518110610bfd57610bfd6144b7565b6020026020010151604051610c1897969594939291906141c8565b60405180910390a180610c2a81614463565b9150506108d7565b50505050505050565b60608060606000845190506000816001600160401b03811115610c6057610c606144cd565b604051908082528060200260200182016040528015610c89578160200160208202803683370190505b5090506000826001600160401b03811115610ca657610ca66144cd565b604051908082528060200260200182016040528015610ccf578160200160208202803683370190505b5090506000836001600160401b03811115610cec57610cec6144cd565b604051908082528060200260200182016040528015610d15578160200160208202803683370190505b50905060005b8851811015610dae57610d46898281518110610d3957610d396144b7565b6020026020010151613080565b868481518110610d5857610d586144b7565b60200260200101868581518110610d7157610d716144b7565b60200260200101868681518110610d8a57610d8a6144b7565b60209081029190910101929092529190525280610da681614463565b915050610d1b565b50919790965090945092505050565b8151835114610dde5760405162461bcd60e51b81526004016104a59061424f565b6000805b84518110156110ec57600a858281518110610dff57610dff6144b7565b602002602001015181548110610e1757610e176144b7565b906000526020600020906007020160050154600114610e785760405162461bcd60e51b815260206004820152601760248201527f446f6e6174696f6e206d6f6465207475726e6564206f6e00000000000000000060448201526064016104a5565b610e10848281518110610e8d57610e8d6144b7565b60200260200101511015610ee35760405162461bcd60e51b815260206004820152601a60248201527f4d696e696d756d20737562736372697074696f6e20697320316800000000000060448201526064016104a5565b6001600160a01b03831660009081526009602052604081208651429290889085908110610f1257610f126144b7565b602002602001015181526020019081526020016000205411610fa157838181518110610f4057610f406144b7565b602002602001015142610f53919061430c565b6001600160a01b03841660009081526009602052604081208751909190889085908110610f8257610f826144b7565b602002602001015181526020019081526020016000208190555061105f565b838181518110610fb357610fb36144b7565b602002602001015160096000856001600160a01b03166001600160a01b031681526020019081526020016000206000878481518110610ff457610ff46144b7565b6020026020010151815260200190815260200160002054611015919061430c565b6001600160a01b03841660009081526009602052604081208751909190889085908110611044576110446144b7565b60200260200101518152602001908152602001600020819055505b610e10848281518110611074576110746144b7565b6020026020010151600a878481518110611090576110906144b7565b6020026020010151815481106110a8576110a86144b7565b9060005260206000209060070201600601546110c49190614366565b6110ce9190614352565b6110d8908361430c565b9150806110e481614463565b915050610de2565b50803410156111505760405162461bcd60e51b815260206004820152602a60248201527f4e6f7420656e6f7567682066756e64732073656e7420746f20636f766572206f6044820152697261636c65206665657360b01b60648201526084016104a5565b60008060009054906101000a90046001600160a01b03166001600160a01b031663c216844a6040518163ffffffff1660e01b8152600401602060405180830381600087803b1580156111a157600080fd5b505af11580156111b5573d6000803e3d6000fd5b505050506040513d601f19601f820116820180604052508101906111d99190613c4d565b90506001600160a01b03811663d0e30db06111f5603234614352565b6040518263ffffffff1660e01b81526004016000604051808303818588803b15801561122057600080fd5b505af1158015611234573d6000803e3d6000fd5b50505050507f103515a9d6bc0233f6381d5e58df739f3078b58635e20d5dd204e558769ddc426032346112679190614352565b604080519182523360208301520161071c565b611282613206565b81518151146112e75760405162461bcd60e51b815260206004820152602b60248201527f56616c7565206c656e67746820616e6420666565644944206c656e677468206460448201526a0de40dcdee840dac2e8c6d60ab1b60648201526084016104a5565b60005b81518110156119d5576000600a848381518110611309576113096144b7565b602002602001015181548110611321576113216144b7565b9060005260206000209060070201600201544261133e9190614352565b905060076000858481518110611356576113566144b7565b602090810291909101810151825281810192909252604090810160009081208482528352818120338252909252902060010154156113db57600760008584815181106113a4576113a46144b7565b6020908102919091018101518252818101929092526040908101600090812084825283528181203382529092528120818155600101555b60405180604001604052808484815181106113f8576113f86144b7565b60200260200101518152602001428152506007600086858151811061141f5761141f6144b7565b6020908102919091018101518252818101929092526040908101600090812085825283528181203382528352208251815591015160019091015583517fba4832b2bf8c9586edd5026f5bf3a5b8a69b0b29dea651d15bfda0cddf0e95489085908490811061148f5761148f6144b7565b6020026020010151828585815181106114aa576114aa6144b7565b602090810291909101810151604080519485529184019290925282015242606082015233608082015260a00160405180910390a160035460009081906001600160401b038111156114fd576114fd6144cd565b604051908082528060200260200182016040528015611526578160200160208202803683370190505b5090506000805b600354811015611676576007600089888151811061154d5761154d6144b7565b602002602001015181526020019081526020016000206000868152602001908152602001600020600060038381548110611589576115896144b7565b60009182526020808320909101546001600160a01b031683528201929092526040019020600101541561166457836115c081614463565b945050600760008988815181106115d9576115d96144b7565b602002602001015181526020019081526020016000206000868152602001908152602001600020600060038381548110611615576116156144b7565b60009182526020808320909101546001600160a01b03168352820192909252604001902054838361164581614463565b945081518110611657576116576144b7565b6020026020010181815250505b8061166e81614463565b91505061152d565b5080825260045483106119be57600061168e83613273565b90506000600282516116a09190614477565b600114156116f25760006002835160016116ba919061430c565b6116c49190614352565b9050826116d26001836143c4565b815181106116e2576116e26144b7565b602002602001015191505061175e565b6000600283516117029190614352565b90506002838281518110611718576117186144b7565b60200260200101518460018461172e91906143c4565b8151811061173e5761173e6144b7565b6020026020010151611750919061430c565b61175a9190614352565b9150505b600a898881518110611772576117726144b7565b60200260200101518154811061178a5761178a6144b7565b906000526020600020906007020160020154600a8a89815181106117b0576117b06144b7565b6020026020010151815481106117c8576117c86144b7565b9060005260206000209060070201600401546117e49190614352565b600a8a89815181106117f8576117f86144b7565b602002602001015181548110611810576118106144b7565b9060005260206000209060070201600201544261182d9190614352565b111561193757600a898881518110611847576118476144b7565b60200260200101518154811061185f5761185f6144b7565b906000526020600020906007020160030154600560008b8a81518110611887576118876144b7565b602002602001015181526020019081526020016000206000600a8c8b815181106118b3576118b36144b7565b6020026020010151815481106118cb576118cb6144b7565b906000526020600020906007020160020154600a8d8c815181106118f1576118f16144b7565b602002602001015181548110611909576119096144b7565b9060005260206000209060070201600401546119259190614352565b81526020810191909152604001600020555b42600a8a898151811061194c5761194c6144b7565b602002602001015181548110611964576119646144b7565b90600052602060002090600702016004018190555080600a8a898151811061198e5761198e6144b7565b6020026020010151815481106119a6576119a66144b7565b90600052602060002090600702016003018190555050505b5050505080806119cd90614463565b9150506112ea565b505050565b81516060906000816001600160401b038111156119f9576119f96144cd565b604051908082528060200260200182016040528015611a22578160200160208202803683370190505b5090508351855114611a765760405162461bcd60e51b815260206004820152601f60248201527f466565647320616e642054696d657374616d7073206d757374206d617463680060448201526064016104a5565b60005b8551811015611cc157600b5415611b4957336000908152600c60205260409020544210611b4457600a868281518110611ab457611ab46144b7565b602002602001015181548110611acc57611acc6144b7565b9060005260206000209060070201600501546001148015611b2757503360009081526009602052604081208751429290899085908110611b0e57611b0e6144b7565b6020026020010151815260200190815260200160002054105b15611b445760405162461bcd60e51b81526004016104a590614218565b611bed565b600a868281518110611b5d57611b5d6144b7565b602002602001015181548110611b7557611b756144b7565b9060005260206000209060070201600501546001148015611bd057503360009081526009602052604081208751429290899085908110611bb757611bb76144b7565b6020026020010151815260200190815260200160002054105b15611bed5760405162461bcd60e51b81526004016104a590614218565b6000600a878381518110611c0357611c036144b7565b602002602001015181548110611c1b57611c1b6144b7565b906000526020600020906007020160020154868381518110611c3f57611c3f6144b7565b6020026020010151611c519190614352565b905060056000888481518110611c6957611c696144b7565b60200260200101518152602001908152602001600020600082815260200190815260200160002054838381518110611ca357611ca36144b7565b60209081029190910101525080611cb981614463565b915050611a79565b50949350505050565b8051825114611ceb5760405162461bcd60e51b81526004016104a59061424f565b6000805b8351811015611eb357600a848281518110611d0c57611d0c6144b7565b602002602001015181548110611d2457611d246144b7565b906000526020600020906007020160050154600014611d855760405162461bcd60e51b815260206004820152601b60248201527f537562736372697074696f6e206d6f6465207475726e6564206f6e000000000060448201526064016104a5565b828181518110611d9757611d976144b7565b602002602001015160086000868481518110611db557611db56144b7565b6020026020010151815260200190815260200160002054611dd6919061430c565b60086000868481518110611dec57611dec6144b7565b6020026020010151815260200190815260200160002081905550828181518110611e1857611e186144b7565b602002602001015182611e2b919061430c565b91507f3444f0007ac07416465c167c0d7657d48e9d410b498f8849035fc9cf9523976d848281518110611e6057611e606144b7565b6020026020010151848381518110611e7a57611e7a6144b7565b6020026020010151604051611e99929190918252602082015260400190565b60405180910390a180611eab81614463565b915050611cef565b5080341015611f135760405162461bcd60e51b815260206004820152602660248201527f4d73672e76616c756520646f6573206e6f74206d65657420737570706f72742060448201526576616c75657360d01b60648201526084016104a5565b60008060009054906101000a90046001600160a01b03166001600160a01b031663c216844a6040518163ffffffff1660e01b8152600401602060405180830381600087803b158015611f6457600080fd5b505af1158015611f78573d6000803e3d6000fd5b505050506040513d601f19601f82011682018060405250810190611f9c9190613c4d565b90506001600160a01b03811663d0e30db0611fb8606485614352565b6040518263ffffffff1660e01b81526004016000604051808303818588803b158015611fe357600080fd5b505af1158015611ff7573d6000803e3d6000fd5b50505050507f103515a9d6bc0233f6381d5e58df739f3078b58635e20d5dd204e558769ddc4260648361202a9190614352565b604080519182523360208301520160405180910390a150505050565b600b546120955760405162461bcd60e51b815260206004820152601c60248201527f537562736372697074696f6e2050617373207475726e6564206f66660000000060448201526064016104a5565b610e108110156120e75760405162461bcd60e51b815260206004820152601a60248201527f4d696e696d756d20737562736372697074696f6e20697320316800000000000060448201526064016104a5565b6201518081600b546120f99190614366565b6121039190614352565b3410156121475760405162461bcd60e51b8152602060048201526012602482015271139bdd08195b9bdd59da081c185e5b595b9d60721b60448201526064016104a5565b6001600160a01b0382166000908152600c6020526040902054421061218e57612170814261430c565b6001600160a01b0383166000908152600c60205260409020556121cc565b6001600160a01b0382166000908152600c60205260409020546121b290829061430c565b6001600160a01b0383166000908152600c60205260409020555b60008060009054906101000a90046001600160a01b03166001600160a01b031663c216844a6040518163ffffffff1660e01b8152600401602060405180830381600087803b15801561221d57600080fd5b505af1158015612231573d6000803e3d6000fd5b505050506040513d601f19601f820116820180604052508101906122559190613c4d565b90506001600160a01b03811663d0e30db0612271603234614352565b6040518263ffffffff1660e01b81526004016000604051808303818588803b15801561229c57600080fd5b505af11580156122b0573d6000803e3d6000fd5b50505050507f103515a9d6bc0233f6381d5e58df739f3078b58635e20d5dd204e558769ddc426032346122e39190614352565b604080519182523360208301520160405180910390a1505050565b612306613206565b600d8181548110612319576123196144b7565b906000526020600020906006020160050154600014156123715760405162461bcd60e51b815260206004820152601360248201527250726f706f73616c206e6f742061637469766560681b60448201526064016104a5565b6000818152600e602090815260408083203380855290835292819020805460ff191660011790558051848152918201929092527f163fd1b723c0447962b4aca81cc014e8103ab3753a07542f4edbed3e59444d67910160405180910390a16000805b60035481101561244f576000838152600e602052604081206003805491929184908110612402576124026144b7565b60009182526020808320909101546001600160a01b0316835282019290925260400190205460ff161561243d578161243981614463565b9250505b8061244781614463565b9150506123d3565b50600454811061273d57600d828154811061246c5761246c6144b7565b906000526020600020906006020160030154600014156124b8576124b3600d838154811061249c5761249c6144b7565b906000526020600020906006020160000154613292565b612712565b600d82815481106124cb576124cb6144b7565b90600052602060002090600602016003015460011415612512576124b3600d83815481106124fb576124fb6144b7565b9060005260206000209060060201600001546132ce565b600d8281548110612525576125256144b7565b90600052602060002090600602016003015460021415612577576124b3600d8381548110612555576125556144b7565b60009182526020909120600160069092020101546001600160a01b03166133b0565b600d828154811061258a5761258a6144b7565b906000526020600020906006020160030154600314156125dc576124b3600d83815481106125ba576125ba6144b7565b60009182526020909120600160069092020101546001600160a01b03166134f9565b600d82815481106125ef576125ef6144b7565b90600052602060002090600602016003015460041415612641576124b3600d838154811061261f5761261f6144b7565b60009182526020909120600160069092020101546001600160a01b03166136b7565b600d8281548110612654576126546144b7565b906000526020600020906006020160030154600514156126c0576124b3600d8381548110612684576126846144b7565b906000526020600020906006020160000154600d84815481106126a9576126a96144b7565b906000526020600020906006020160040154613705565b612712600d83815481106126d6576126d66144b7565b906000526020600020906006020160000154600d84815481106126fb576126fb6144b7565b9060005260206000209060060201600401546137cf565b6000600d8381548110612727576127276144b7565b9060005260206000209060060201600501819055505b5050565b612749613206565b600d548215806127595750826001145b806127645750826007145b156128bf576040805160c081018252868152600060208201818152339383019384526060830187815260808401838152600160a08601818152600d8054928301815590955294517fd7b6990105719101dabeb77144f2a3385c8033acd3af97e9423a695e81ad1eb560069096029586015591517fd7b6990105719101dabeb77144f2a3385c8033acd3af97e9423a695e81ad1eb6850180546001600160a01b03199081166001600160a01b039384161790915595517fd7b6990105719101dabeb77144f2a3385c8033acd3af97e9423a695e81ad1eb78601805490971691161790945592517fd7b6990105719101dabeb77144f2a3385c8033acd3af97e9423a695e81ad1eb883015591517fd7b6990105719101dabeb77144f2a3385c8033acd3af97e9423a695e81ad1eb982015590517fd7b6990105719101dabeb77144f2a3385c8033acd3af97e9423a695e81ad1eba90910155612b82565b82600514806128ce5750826006145b15612a29576040805160c081018252868152600060208201818152339383019384526060830187815260808401878152600160a08601818152600d8054928301815590955294517fd7b6990105719101dabeb77144f2a3385c8033acd3af97e9423a695e81ad1eb560069096029586015591517fd7b6990105719101dabeb77144f2a3385c8033acd3af97e9423a695e81ad1eb6850180546001600160a01b03199081166001600160a01b039384161790915595517fd7b6990105719101dabeb77144f2a3385c8033acd3af97e9423a695e81ad1eb78601805490971691161790945592517fd7b6990105719101dabeb77144f2a3385c8033acd3af97e9423a695e81ad1eb883015591517fd7b6990105719101dabeb77144f2a3385c8033acd3af97e9423a695e81ad1eb982015590517fd7b6990105719101dabeb77144f2a3385c8033acd3af97e9423a695e81ad1eba90910155612b82565b6040805160c08101825260008082526001600160a01b0387811660208401908152339484019485526060840188815260808501848152600160a08701818152600d8054928301815590965295517fd7b6990105719101dabeb77144f2a3385c8033acd3af97e9423a695e81ad1eb560069097029687015591517fd7b6990105719101dabeb77144f2a3385c8033acd3af97e9423a695e81ad1eb6860180546001600160a01b031990811692861692909217905595517fd7b6990105719101dabeb77144f2a3385c8033acd3af97e9423a695e81ad1eb786018054909716931692909217909455517fd7b6990105719101dabeb77144f2a3385c8033acd3af97e9423a695e81ad1eb883015591517fd7b6990105719101dabeb77144f2a3385c8033acd3af97e9423a695e81ad1eb982015590517fd7b6990105719101dabeb77144f2a3385c8033acd3af97e9423a695e81ad1eba909101555b6000818152600e602090815260408083203380855290835292819020805460ff1916600117905580518481529182018890526001600160a01b038716908201526060810185905260808101919091527fa7105ed77601732b2ee4362ad1a2ca325d1983be801d553d907e0aa29dcdb79a9060a00160405180910390a1604080518281523360208201527f163fd1b723c0447962b4aca81cc014e8103ab3753a07542f4edbed3e59444d67910161071c565b600d8181548110612c4357600080fd5b60009182526020909120600690910201805460018201546002830154600384015460048501546005909501549395506001600160a01b0392831694919092169286565b60608060608060606000865190506000816001600160401b03811115612cae57612cae6144cd565b604051908082528060200260200182016040528015612ce157816020015b6060815260200190600190039081612ccc5790505b5090506000826001600160401b03811115612cfe57612cfe6144cd565b604051908082528060200260200182016040528015612d27578160200160208202803683370190505b5090506000836001600160401b03811115612d4457612d446144cd565b604051908082528060200260200182016040528015612d6d578160200160208202803683370190505b5090506000846001600160401b03811115612d8a57612d8a6144cd565b604051908082528060200260200182016040528015612db3578160200160208202803683370190505b5090506000856001600160401b03811115612dd057612dd06144cd565b604051908082528060200260200182016040528015612df9578160200160208202803683370190505b50905060005b8c5181101561306c57600a8d8281518110612e1c57612e1c6144b7565b602002602001015181548110612e3457612e346144b7565b90600052602060002090600702016000018054612e5090614408565b80601f0160208091040260200160405190810160405280929190818152602001828054612e7c90614408565b8015612ec95780601f10612e9e57610100808354040283529160200191612ec9565b820191906000526020600020905b815481529060010190602001808311612eac57829003601f168201915b5050505050868281518110612ee057612ee06144b7565b6020026020010181905250600a8d8281518110612eff57612eff6144b7565b602002602001015181548110612f1757612f176144b7565b906000526020600020906007020160010154858281518110612f3b57612f3b6144b7565b602002602001018181525050600a8d8281518110612f5b57612f5b6144b7565b602002602001015181548110612f7357612f736144b7565b906000526020600020906007020160020154848281518110612f9757612f976144b7565b602002602001018181525050600a8d8281518110612fb757612fb76144b7565b602002602001015181548110612fcf57612fcf6144b7565b906000526020600020906007020160050154838281518110612ff357612ff36144b7565b602002602001018181525050600a8d8281518110613013576130136144b7565b60200260200101518154811061302b5761302b6144b7565b90600052602060002090600702016006015482828151811061304f5761304f6144b7565b60209081029190910101528061306481614463565b915050612dff565b50939b929a50909850965090945092505050565b6000806000806000806000600b54111561311957336000908152600c6020526040902054421061311457600a87815481106130bd576130bd6144b7565b90600052602060002090600702016005015460011480156130f757503360009081526009602090815260408083208a845290915290205442115b156131145760405162461bcd60e51b81526004016104a590614218565b613183565b600a878154811061312c5761312c6144b7565b906000526020600020906007020160050154600114801561316657503360009081526009602090815260408083208a845290915290205442115b156131835760405162461bcd60e51b81526004016104a590614218565b600a8781548110613196576131966144b7565b9060005260206000209060070201600301549250600a87815481106131bd576131bd6144b7565b9060005260206000209060070201600401549150600a87815481106131e4576131e46144b7565b6000918252602090912060079091020160010154929791965091945092505050565b3360009081526006602052604090205460ff166108255760405162461bcd60e51b815260206004820152602560248201527f4f6e6c792061207369676e65722063616e20706572666f726d2074686973206160448201526431ba34b7b760d91b60648201526084016104a5565b606061328e8260006001855161328991906143c4565b613879565b5090565b600b8190556040518181527f35a14b8b09dda49419beccb57b8ab7a2333bfeb9634690a2fdd9e62ca2b73dea906020015b60405180910390a150565b806133115760405162461bcd60e51b815260206004820152601360248201527205468726573686f6c642063616e74206265203606c1b60448201526064016104a5565b60025481111561337b5760405162461bcd60e51b815260206004820152602f60248201527f5468726573686f6c642063616e7420626520626967676572207468656e206c6560448201526e6e677468206f66207369676e65727360881b60648201526084016104a5565b60048190556040518181527fd88532aad776d079efe3ac298f9e21dc4ef893e240d8c13107298e7c4f6eb8b8906020016132c3565b60005b60035481101561344757816001600160a01b0316600382815481106133da576133da6144b7565b6000918252602090912001546001600160a01b031614156134355760405162461bcd60e51b81526020600482015260156024820152745369676e657220616c72656164792065786973747360581b60448201526064016104a5565b8061343f81614463565b9150506133b3565b506003805460018101825560009182527fc2575a0e9e593c00f959f8c92f12db2869c3395a3b0502d05e2516446f71f85b0180546001600160a01b0319166001600160a01b03841617905560028054916134a083614463565b90915550506001600160a01b038116600081815260066020908152604091829020805460ff1916600117905590519182527f3dc2a8437aef0e8d2839b5e75d0d93e6c7f43b3acf5d2ef2db79beb54cb47b3d91016132c3565b6001600160a01b03811660009081526006602052604090205460ff1661356d5760405162461bcd60e51b8152602060048201526024808201527f4164647265737320746f2072656d6f76652068617320746f206265206120736960448201526333b732b960e11b60648201526084016104a5565b60045460035461357f906001906143c4565b10156135cd5760405162461bcd60e51b815260206004820152601b60248201527f4c657373207369676e657273207468616e207468726573686f6c64000000000060448201526064016104a5565b60005b60035481101561273d57816001600160a01b0316600382815481106135f7576135f76144b7565b6000918252602090912001546001600160a01b031614156136a55760038181548110613625576136256144b7565b6000918252602082200180546001600160a01b0319169055600280549161364b836143f9565b90915550506001600160a01b038216600081815260066020908152604091829020805460ff1916905590519182527ffa15964370ccf7acface74df78a85aa4857e703226c446d3e24a69663dc302e7910160405180910390a15b806136af81614463565b9150506135d0565b600180546001600160a01b0319166001600160a01b0383169081179091556040519081527f4bc0293774d2baff337ab66d049d9fb89b31c492a1c82fd1b53d43ac85e8da51906020016132c3565b60018211156137605760405162461bcd60e51b815260206004820152602160248201527f496e76616c696420617267756d656e7420666f7220726576656e7565204d6f646044820152606560f81b60648201526084016104a5565b81600a8281548110613774576137746144b7565b9060005260206000209060070201600501819055507fe7fdf61d93ca682755140eb73628f48cfc090ca0f669e547790b227980e1a22c82826040516137c3929190918252602082015260400190565b60405180910390a15050565b600082116138165760405162461bcd60e51b81526020600482015260146024820152730466565642070726963652063616e7420626520360641b60448201526064016104a5565b81600a828154811061382a5761382a6144b7565b9060005260206000209060070201600601819055507f66317a45088a6e6e10f3831e0347d9fbaa68b04f54503eaf4e8683512a69077a82826040516137c3929190918252602082015260400190565b81818082141561388a575050505050565b60008560026138998787614385565b6138a39190614324565b6138ad90876142cb565b815181106138bd576138bd6144b7565b602002602001015190505b8183136139cc575b808684815181106138e3576138e36144b7565b6020026020010151101561390357826138fb81614443565b9350506138d0565b858281518110613915576139156144b7565b6020026020010151811015613936578161392e816143db565b925050613903565b8183136139c75785828151811061394f5761394f6144b7565b6020026020010151868481518110613969576139696144b7565b6020026020010151878581518110613983576139836144b7565b6020026020010188858151811061399c5761399c6144b7565b602090810291909101019190915252826139b581614443565b93505081806139c3906143db565b9250505b6138c8565b818512156139df576139df868684613879565b838312156139f2576139f2868486613879565b505050505050565b828054828255906000526020600020908101928215613a4f579160200282015b82811115613a4f57825182546001600160a01b0319166001600160a01b03909116178255602090920191600190910190613a1a565b5061328e929150613acf565b828054613a6790614408565b90600052602060002090601f016020900481019282613a895760008555613a4f565b82601f10613aa257805160ff1916838001178555613a4f565b82800160010185558215613a4f579182015b82811115613a4f578251825591602001919060010190613ab4565b5b8082111561328e5760008155600101613ad0565b8035613aef816144e3565b919050565b6000601f8381840112613b0657600080fd5b82356020613b1b613b16836142a8565b614278565b80838252828201915082870188848660051b8a01011115613b3b57600080fd5b60005b85811015613bd25781356001600160401b0380821115613b5d57600080fd5b818b0191508b603f830112613b7157600080fd5b86820135604082821115613b8757613b876144cd565b613b98828c01601f19168a01614278565b92508183528d81838601011115613bae57600080fd5b818185018a8501375060009082018801528552509284019290840190600101613b3e565b509098975050505050505050565b600082601f830112613bf157600080fd5b81356020613c01613b16836142a8565b80838252828201915082860187848660051b8901011115613c2157600080fd5b60005b85811015613c4057813584529284019290840190600101613c24565b5090979650505050505050565b600060208284031215613c5f57600080fd5b8151613c6a816144e3565b9392505050565b60008060408385031215613c8457600080fd5b8235613c8f816144e3565b946020939093013593505050565b600080600080600060a08688031215613cb557600080fd5b85356001600160401b03811115613ccb57600080fd5b8601601f81018813613cdc57600080fd5b80356020613cec613b16836142a8565b8083825282820191508285018c848660051b8801011115613d0c57600080fd5b600095505b84861015613d38578035613d24816144e3565b835260019590950194918301918301613d11565b509850508801359550613d5091505060408701613ae4565b925060608601359150613d6560808701613ae4565b90509295509295909350565b60008060008060008060c08789031215613d8a57600080fd5b86356001600160401b0380821115613da157600080fd5b613dad8a838b01613af4565b97506020890135915080821115613dc357600080fd5b613dcf8a838b01613af4565b96506040890135915080821115613de557600080fd5b613df18a838b01613be0565b95506060890135915080821115613e0757600080fd5b613e138a838b01613be0565b94506080890135915080821115613e2957600080fd5b613e358a838b01613be0565b935060a0890135915080821115613e4b57600080fd5b50613e5889828a01613be0565b9150509295509295509295565b600060208284031215613e7757600080fd5b81356001600160401b03811115613e8d57600080fd5b613e9984828501613be0565b949350505050565b60008060408385031215613eb457600080fd5b82356001600160401b0380821115613ecb57600080fd5b613ed786838701613be0565b93506020850135915080821115613eed57600080fd5b50613efa85828601613be0565b9150509250929050565b600080600060608486031215613f1957600080fd5b83356001600160401b0380821115613f3057600080fd5b613f3c87838801613be0565b94506020860135915080821115613f5257600080fd5b50613f5f86828701613be0565b9250506040840135613f70816144e3565b809150509250925092565b600060208284031215613f8d57600080fd5b5035919050565b60008060008060808587031215613faa57600080fd5b843593506020850135613fbc816144e3565b93969395505050506040820135916060013590565b600081518084526020808501945080840160005b8381101561400157815187529582019590820190600101613fe5565b509495945050505050565b6000815180845260005b8181101561403257602081850181015186830182015201614016565b81811115614044576000602083870101525b50601f01601f19169290920160200192915050565b606080825284519082018190526000906020906080840190828801845b8281101561409b5781516001600160a01b031684529284019290840190600101614076565b50505090830194909452506001600160a01b0391909116604090910152919050565b600060a0820160a0835280885180835260c08501915060c08160051b86010192506020808b0160005b838110156141145760bf1988870301855261410286835161400c565b955093820193908201906001016140e6565b50508584038187015250505061412a8188613fd1565b9050828103604084015261413e8187613fd1565b905082810360608401526141528186613fd1565b905082810360808401526141668185613fd1565b98975050505050505050565b602081526000613c6a6020830184613fd1565b6060815260006141986060830186613fd1565b82810360208401526141aa8186613fd1565b905082810360408401526141be8185613fd1565b9695505050505050565b60e0815260006141db60e083018a61400c565b82810360208401526141ed818a61400c565b604084019890985250506060810194909452608084019290925260a083015260c09091015292915050565b60208082526017908201527f4e6f20737562736372697074696f6e20746f2066656564000000000000000000604082015260600190565b6020808252600f908201526e098cadccee8d040dad2e6dac2e8c6d608b1b604082015260600190565b604051601f8201601f191681016001600160401b03811182821017156142a0576142a06144cd565b604052919050565b60006001600160401b038211156142c1576142c16144cd565b5060051b60200190565b600080821280156001600160ff1b03849003851316156142ed576142ed61448b565b600160ff1b83900384128116156143065761430661448b565b50500190565b6000821982111561431f5761431f61448b565b500190565b600082614333576143336144a1565b600160ff1b82146000198414161561434d5761434d61448b565b500590565b600082614361576143616144a1565b500490565b60008160001904831182151516156143805761438061448b565b500290565b60008083128015600160ff1b8501841216156143a3576143a361448b565b6001600160ff1b03840183138116156143be576143be61448b565b50500390565b6000828210156143d6576143d661448b565b500390565b6000600160ff1b8214156143f1576143f161448b565b506000190190565b6000816143f1576143f161448b565b600181811c9082168061441c57607f821691505b6020821081141561443d57634e487b7160e01b600052602260045260246000fd5b50919050565b60006001600160ff1b0382141561445c5761445c61448b565b5060010190565b600060001982141561445c5761445c61448b565b600082614486576144866144a1565b500690565b634e487b7160e01b600052601160045260246000fd5b634e487b7160e01b600052601260045260246000fd5b634e487b7160e01b600052603260045260246000fd5b634e487b7160e01b600052604160045260246000fd5b6001600160a01b03811681146107e957600080fdfea2646970667358221220eb691b4e18b1f061bee828eb8e3b216aadf94ff9a485895df2e9b60c382375a764736f6c63430008060033",
  "immutableReferences": {},
  "source": "// SPDX-License-Identifier: MIT\npragma solidity >=0.8.6;\npragma abicoder v2;\n\n// import { Address } from \"@openzeppelin/contracts/utils/Address.sol\";\nimport \"@openzeppelin/contracts/utils/Address.sol\";\n// import \"@openzeppelin/contracts/math/SafeMath.sol\";\nimport \"./interfaces/IConjureFactory.sol\";\nimport \"./interfaces/IConjureRouter.sol\";\n\ncontract OpenOracleFramework {\n    // using Openzeppelin contracts for SafeMath and Address\n    // using SafeMath for uint256;\n    using Address for address;\n\n    // the address of the collateral contract factory\n    address public factoryContract;\n\n    // address used for pay out\n    address payable public payoutAddress;\n\n    // number of signers\n    uint256 public signerLength;\n\n    // addresses of the signers\n    address[] public signers;\n\n    // threshold which has to be reached\n    uint256 public signerThreshold;\n\n    // struct to keep the values for each individual round\n    struct feedRoundStruct {\n        uint256 value;\n        uint256 timestamp;\n    }\n\n    // stores historical values of feeds\n    mapping(uint256 => mapping(uint256 => uint256)) private historicalFeeds;\n\n    // indicates if sender is a signer\n    mapping(address => bool) private isSigner;\n\n    // mapping to store the actual submitted values per FeedId, per round number\n    mapping(uint256 => mapping(uint256 => mapping(address => feedRoundStruct)))\n        private feedRoundNumberToStructMapping;\n\n    // indicates support of feeds\n    mapping(uint256 => uint256) public feedSupport;\n\n    // indicates if address si subscribed to a feed\n    mapping(address => mapping(uint256 => uint256)) private subscribedTo;\n\n    struct oracleStruct {\n        string feedName;\n        uint256 feedDecimals;\n        uint256 feedTimeslot;\n        uint256 latestPrice;\n        uint256 latestPriceUpdate;\n        // 0... donation, 1... subscription\n        uint256 revenueMode;\n        uint256 feedCost;\n    }\n\n    oracleStruct[] private feedList;\n\n    // indicates if oracle subscription is turned on. 0 indicates no pass\n    uint256 public subscriptionPassPrice;\n\n    mapping(address => uint256) private hasPass;\n\n    struct proposalStruct {\n        uint256 uintValue;\n        address addressValue;\n        address proposer;\n        // 0 ... pricePass\n        // 1 ... threshold\n        // 2 ... add signer\n        // 3 ... remove signer\n        // 4 ... payoutAddress\n        // 5 ... revenueMode\n        // 6 ... feedCost\n        uint256 proposalType;\n        uint256 proposalFeedId;\n        uint256 proposalActive;\n    }\n\n    proposalStruct[] public proposalList;\n\n    mapping(uint256 => mapping(address => bool)) private hasSignedProposal;\n\n    event contractSetup(\n        address[] signers,\n        uint256 signerThreshold,\n        address payout\n    );\n    event feedAdded(\n        string name,\n        string description,\n        uint256 decimal,\n        uint256 timeslot,\n        uint256 feedId,\n        uint256 mode,\n        uint256 price\n    );\n    event feedSigned(\n        uint256 feedId,\n        uint256 roundId,\n        uint256 value,\n        uint256 timestamp,\n        address signer\n    );\n    event routerFeeTaken(uint256 value, address sender);\n    event feedSupported(uint256 feedId, uint256 supportvalue);\n    event newProposal(\n        uint256 proposalId,\n        uint256 uintValue,\n        address addressValue,\n        uint256 oracleType,\n        address proposer\n    );\n    event proposalSigned(uint256 proposalId, address signer);\n    event newFee(uint256 value);\n    event newThreshold(uint256 value);\n    event newSigner(address signer);\n    event signerRemoved(address signer);\n    event newPayoutAddress(address payout);\n    event newRevenueMode(uint256 mode, uint256 feed);\n    event newFeedCost(uint256 cost, uint256 feed);\n    event subscriptionPassPriceUpdated(uint256 newPass);\n\n    // only Signer modifier\n    modifier onlySigner() {\n        _onlySigner();\n        _;\n    }\n\n    // only Signer view\n    function _onlySigner() private view {\n        require(isSigner[msg.sender], \"Only a signer can perform this action\");\n    }\n\n    constructor() {\n        // Don't allow implementation to be initialized.\n        factoryContract = address(1);\n    }\n\n    function initialize(\n        address[] memory signers_,\n        uint256 signerThreshold_,\n        address payable payoutAddress_,\n        uint256 subscriptionPassPrice_,\n        address factoryContract_\n    ) external {\n        require(factoryContract == address(0), \"already initialized\");\n        require(factoryContract_ != address(0), \"factory can not be null\");\n        require(signerThreshold_ != 0, \"Threshold cant be 0\");\n        require(\n            signerThreshold_ <= signers_.length,\n            \"Threshold cant be more then signer count\"\n        );\n\n        factoryContract = factoryContract_;\n        signerThreshold = signerThreshold_;\n        signers = signers_;\n\n        for (uint256 i = 0; i < signers.length; i++) {\n            require(signers[i] != address(0), \"Not zero address\");\n            isSigner[signers[i]] = true;\n        }\n\n        signerLength = signers_.length;\n        payoutAddress = payoutAddress_;\n        subscriptionPassPrice = subscriptionPassPrice_;\n\n        emit contractSetup(signers_, signerThreshold, payoutAddress);\n    }\n\n    //---------------------------helper functions---------------------------\n\n    /**\n     * @dev implementation of a quicksort algorithm\n     *\n     * @param arr the array to be sorted\n     * @param left the left outer bound element to start the sort\n     * @param right the right outer bound element to stop the sort\n     */\n    function quickSort(\n        uint256[] memory arr,\n        int256 left,\n        int256 right\n    ) private pure {\n        int256 i = left;\n        int256 j = right;\n        if (i == j) return;\n        uint256 pivot = arr[uint256(left + (right - left) / 2)];\n        while (i <= j) {\n            while (arr[uint256(i)] < pivot) i++;\n            while (pivot < arr[uint256(j)]) j--;\n            if (i <= j) {\n                (arr[uint256(i)], arr[uint256(j)]) = (\n                    arr[uint256(j)],\n                    arr[uint256(i)]\n                );\n                i++;\n                j--;\n            }\n        }\n        if (left < j) quickSort(arr, left, j);\n        if (i < right) quickSort(arr, i, right);\n    }\n\n    /**\n     * @dev sort implementation which calls the quickSort function\n     *\n     * @param data the array to be sorted\n     * @return the sorted array\n     */\n    function sort(uint256[] memory data)\n        private\n        pure\n        returns (uint256[] memory)\n    {\n        quickSort(data, int256(0), int256(data.length - 1));\n        return data;\n    }\n\n    //---------------------------view functions ---------------------------\n\n    function getHistoricalFeeds(\n        uint256[] memory feedIDs,\n        uint256[] memory timestamps\n    ) external view returns (uint256[] memory) {\n        uint256 feedLen = feedIDs.length;\n        uint256[] memory returnPrices = new uint256[](feedLen);\n        require(\n            feedIDs.length == timestamps.length,\n            \"Feeds and Timestamps must match\"\n        );\n\n        for (uint256 i = 0; i < feedIDs.length; i++) {\n            if (subscriptionPassPrice > 0) {\n                if (hasPass[msg.sender] <= block.timestamp) {\n                    if (\n                        feedList[feedIDs[i]].revenueMode == 1 &&\n                        subscribedTo[msg.sender][feedIDs[i]] < block.timestamp\n                    ) {\n                        revert(\"No subscription to feed\");\n                    }\n                }\n            } else {\n                if (\n                    feedList[feedIDs[i]].revenueMode == 1 &&\n                    subscribedTo[msg.sender][feedIDs[i]] < block.timestamp\n                ) {\n                    revert(\"No subscription to feed\");\n                }\n            }\n\n            uint256 roundNumber = timestamps[i] /\n                feedList[feedIDs[i]].feedTimeslot;\n            returnPrices[i] = historicalFeeds[feedIDs[i]][roundNumber];\n        }\n\n        return (returnPrices);\n    }\n\n    /**\n     * @dev getFeeds function lets anyone call the oracle to receive data (maybe pay an optional fee)\n     *\n     * @param feedIDs the array of feedIds\n     */\n    function getFeeds(uint256[] memory feedIDs)\n        external\n        view\n        returns (\n            uint256[] memory,\n            uint256[] memory,\n            uint256[] memory\n        )\n    {\n        uint256 feedLen = feedIDs.length;\n        uint256[] memory returnPrices = new uint256[](feedLen);\n        uint256[] memory returnTimestamps = new uint256[](feedLen);\n        uint256[] memory returnDecimals = new uint256[](feedLen);\n\n        for (uint256 i = 0; i < feedIDs.length; i++) {\n            (returnPrices[i], returnTimestamps[i], returnDecimals[i]) = getFeed(\n                feedIDs[i]\n            );\n        }\n\n        return (returnPrices, returnTimestamps, returnDecimals);\n    }\n\n    /**\n     * @dev getFeed function lets anyone call the oracle to receive data (maybe pay an optional fee)\n     *\n     * @param feedID the array of feedId\n     */\n    function getFeed(uint256 feedID)\n        public\n        view\n        returns (\n            uint256,\n            uint256,\n            uint256\n        )\n    {\n        uint256 returnPrice;\n        uint256 returnTimestamp;\n        uint256 returnDecimals;\n\n        if (subscriptionPassPrice > 0) {\n            if (hasPass[msg.sender] <= block.timestamp) {\n                if (\n                    feedList[feedID].revenueMode == 1 &&\n                    subscribedTo[msg.sender][feedID] < block.timestamp\n                ) {\n                    revert(\"No subscription to feed\");\n                }\n            }\n        } else {\n            if (\n                feedList[feedID].revenueMode == 1 &&\n                subscribedTo[msg.sender][feedID] < block.timestamp\n            ) {\n                revert(\"No subscription to feed\");\n            }\n        }\n\n        returnPrice = feedList[feedID].latestPrice;\n        returnTimestamp = feedList[feedID].latestPriceUpdate;\n        returnDecimals = feedList[feedID].feedDecimals;\n\n        return (returnPrice, returnTimestamp, returnDecimals);\n    }\n\n    function getFeedLength() external view returns (uint256) {\n        return feedList.length;\n    }\n\n    function getFeedList(uint256[] memory feedIDs)\n        external\n        view\n        returns (\n            string[] memory,\n            uint256[] memory,\n            uint256[] memory,\n            uint256[] memory,\n            uint256[] memory\n        )\n    {\n        uint256 feedLen = feedIDs.length;\n        string[] memory returnNames = new string[](feedLen);\n        uint256[] memory returnDecimals = new uint256[](feedLen);\n        uint256[] memory returnTimeslot = new uint256[](feedLen);\n        uint256[] memory returnRevenueMode = new uint256[](feedLen);\n        uint256[] memory returnCost = new uint256[](feedLen);\n\n        for (uint256 i = 0; i < feedIDs.length; i++) {\n            returnNames[i] = feedList[feedIDs[i]].feedName;\n            returnDecimals[i] = feedList[feedIDs[i]].feedDecimals;\n            returnTimeslot[i] = feedList[feedIDs[i]].feedTimeslot;\n            returnRevenueMode[i] = feedList[feedIDs[i]].revenueMode;\n            returnCost[i] = feedList[feedIDs[i]].feedCost;\n        }\n\n        return (\n            returnNames,\n            returnDecimals,\n            returnTimeslot,\n            returnRevenueMode,\n            returnCost\n        );\n    }\n\n    //---------------------------oracle management functions ---------------------------\n\n    // function to withdraw funds\n    function withdrawFunds() external {\n        if (payoutAddress == address(0)) {\n            for (uint256 n = 0; n < signers.length; n++) {\n                payable(signers[n]).transfer(\n                    address(this).balance / signers.length\n                );\n            }\n        } else {\n            payoutAddress.transfer(address(this).balance);\n        }\n    }\n\n    function createNewFeeds(\n        string[] memory names,\n        string[] memory descriptions,\n        uint256[] memory decimals,\n        uint256[] memory timeslots,\n        uint256[] memory feedCosts,\n        uint256[] memory revenueModes\n    ) external onlySigner {\n        require(names.length == descriptions.length, \"Length mismatch\");\n        require(descriptions.length == decimals.length, \"Length mismatch\");\n        require(decimals.length == timeslots.length, \"Length mismatch\");\n        require(timeslots.length == feedCosts.length, \"Length mismatch\");\n        require(feedCosts.length == revenueModes.length, \"Length mismatch\");\n\n        for (uint256 i = 0; i < names.length; i++) {\n            require(decimals[i] <= 18, \"Decimal places too high\");\n            require(timeslots[i] > 0, \"Timeslot cannot be 0\");\n            require(revenueModes[i] <= 1, \"Wrong revenueMode parameter\");\n\n            feedList.push(\n                oracleStruct({\n                    feedName: names[i],\n                    feedDecimals: decimals[i],\n                    feedTimeslot: timeslots[i],\n                    latestPrice: 0,\n                    latestPriceUpdate: 0,\n                    revenueMode: revenueModes[i],\n                    feedCost: feedCosts[i]\n                })\n            );\n\n            emit feedAdded(\n                names[i],\n                descriptions[i],\n                decimals[i],\n                timeslots[i],\n                feedList.length - 1,\n                revenueModes[i],\n                feedCosts[i]\n            );\n        }\n    }\n\n    /**\n     * @dev submitFeed function lets a signer submit as many feeds as they want to\n     *\n     * @param values the array of values\n     * @param feedIDs the array of feedIds\n     */\n    function submitFeed(uint256[] memory feedIDs, uint256[] memory values)\n        external\n        onlySigner\n    {\n        require(\n            values.length == feedIDs.length,\n            \"Value length and feedID length do not match\"\n        );\n\n        // process feeds\n        for (uint256 i = 0; i < values.length; i++) {\n            // get current round number for feed\n            uint256 roundNumber = block.timestamp /\n                feedList[feedIDs[i]].feedTimeslot;\n\n            // check if the signer already pushed an update for the given period\n            if (\n                feedRoundNumberToStructMapping[feedIDs[i]][roundNumber][\n                    msg.sender\n                ].timestamp != 0\n            ) {\n                delete feedRoundNumberToStructMapping[feedIDs[i]][roundNumber][\n                    msg.sender\n                ];\n            }\n\n            // feed - number and push value\n            feedRoundNumberToStructMapping[feedIDs[i]][roundNumber][\n                msg.sender\n            ] = feedRoundStruct({\n                value: values[i],\n                timestamp: block.timestamp\n            });\n\n            emit feedSigned(\n                feedIDs[i],\n                roundNumber,\n                values[i],\n                block.timestamp,\n                msg.sender\n            );\n\n            // check if threshold was met\n            uint256 signedFeedsLen;\n            uint256[] memory prices = new uint256[](signers.length);\n            uint256 k;\n\n            for (uint256 j = 0; j < signers.length; j++) {\n                if (\n                    feedRoundNumberToStructMapping[feedIDs[i]][roundNumber][\n                        signers[j]\n                    ].timestamp != 0\n                ) {\n                    signedFeedsLen++;\n                    prices[k++] = feedRoundNumberToStructMapping[feedIDs[i]][\n                        roundNumber\n                    ][signers[j]].value;\n                }\n            }\n\n            // Change the list size of the array in place\n            assembly {\n                mstore(prices, k)\n            }\n\n            // if threshold is met process price\n            if (signedFeedsLen >= signerThreshold) {\n                uint256[] memory sorted = sort(prices);\n                uint256 returnPrice;\n\n                // uneven so we can take the middle\n                if (sorted.length % 2 == 1) {\n                    uint256 sizer = (sorted.length + 1) / 2;\n                    returnPrice = sorted[sizer - 1];\n                    // take average of the 2 most inner numbers\n                } else {\n                    uint256 size1 = (sorted.length) / 2;\n                    returnPrice = (sorted[size1 - 1] + sorted[size1]) / 2;\n                }\n\n                // process the struct for storing\n                if (\n                    block.timestamp / feedList[feedIDs[i]].feedTimeslot >\n                    feedList[feedIDs[i]].latestPriceUpdate /\n                        feedList[feedIDs[i]].feedTimeslot\n                ) {\n                    historicalFeeds[feedIDs[i]][\n                        feedList[feedIDs[i]].latestPriceUpdate /\n                            feedList[feedIDs[i]].feedTimeslot\n                    ] = feedList[feedIDs[i]].latestPrice;\n                }\n                feedList[feedIDs[i]].latestPriceUpdate = block.timestamp;\n                feedList[feedIDs[i]].latestPrice = returnPrice;\n            }\n        }\n    }\n\n    function signProposal(uint256 proposalId) external onlySigner {\n        require(\n            proposalList[proposalId].proposalActive != 0,\n            \"Proposal not active\"\n        );\n\n        hasSignedProposal[proposalId][msg.sender] = true;\n        emit proposalSigned(proposalId, msg.sender);\n\n        uint256 signedProposalLen;\n\n        for (uint256 i = 0; i < signers.length; i++) {\n            if (hasSignedProposal[proposalId][signers[i]]) {\n                signedProposalLen++;\n            }\n        }\n\n        // execute proposal\n        if (signedProposalLen >= signerThreshold) {\n            if (proposalList[proposalId].proposalType == 0) {\n                updatePricePass(proposalList[proposalId].uintValue);\n            } else if (proposalList[proposalId].proposalType == 1) {\n                updateThreshold(proposalList[proposalId].uintValue);\n            } else if (proposalList[proposalId].proposalType == 2) {\n                addSigners(proposalList[proposalId].addressValue);\n            } else if (proposalList[proposalId].proposalType == 3) {\n                removeSigner(proposalList[proposalId].addressValue);\n            } else if (proposalList[proposalId].proposalType == 4) {\n                updatePayoutAddress(proposalList[proposalId].addressValue);\n            } else if (proposalList[proposalId].proposalType == 5) {\n                updateRevenueMode(\n                    proposalList[proposalId].uintValue,\n                    proposalList[proposalId].proposalFeedId\n                );\n            } else {\n                updateFeedCost(\n                    proposalList[proposalId].uintValue,\n                    proposalList[proposalId].proposalFeedId\n                );\n            }\n\n            // lock proposal\n            proposalList[proposalId].proposalActive = 0;\n        }\n    }\n\n    function createProposal(\n        uint256 uintValue,\n        address addressValue,\n        uint256 proposalType,\n        uint256 feedId\n    ) external onlySigner {\n        uint256 proposalArrayLen = proposalList.length;\n\n        // fee or threshold\n        if (proposalType == 0 || proposalType == 1 || proposalType == 7) {\n            proposalList.push(\n                proposalStruct({\n                    uintValue: uintValue,\n                    addressValue: address(0),\n                    proposer: msg.sender,\n                    proposalType: proposalType,\n                    proposalFeedId: 0,\n                    proposalActive: 1\n                })\n            );\n        } else if (proposalType == 5 || proposalType == 6) {\n            proposalList.push(\n                proposalStruct({\n                    uintValue: uintValue,\n                    addressValue: address(0),\n                    proposer: msg.sender,\n                    proposalType: proposalType,\n                    proposalFeedId: feedId,\n                    proposalActive: 1\n                })\n            );\n        } else {\n            proposalList.push(\n                proposalStruct({\n                    uintValue: 0,\n                    addressValue: addressValue,\n                    proposer: msg.sender,\n                    proposalType: proposalType,\n                    proposalFeedId: 0,\n                    proposalActive: 1\n                })\n            );\n        }\n\n        hasSignedProposal[proposalArrayLen][msg.sender] = true;\n\n        emit newProposal(\n            proposalArrayLen,\n            uintValue,\n            addressValue,\n            proposalType,\n            msg.sender\n        );\n        emit proposalSigned(proposalArrayLen, msg.sender);\n    }\n\n    function updatePricePass(uint256 newPricePass) private {\n        subscriptionPassPrice = newPricePass;\n\n        emit subscriptionPassPriceUpdated(newPricePass);\n    }\n\n    function updateRevenueMode(uint256 newRevenueModeValue, uint256 feedId)\n        private\n    {\n        require(newRevenueModeValue <= 1, \"Invalid argument for revenue Mode\");\n        feedList[feedId].revenueMode = newRevenueModeValue;\n        emit newRevenueMode(newRevenueModeValue, feedId);\n    }\n\n    function updateFeedCost(uint256 feedCost, uint256 feedId) private {\n        require(feedCost > 0, \"Feed price cant be 0\");\n        feedList[feedId].feedCost = feedCost;\n        emit newFeedCost(feedCost, feedId);\n    }\n\n    function updateThreshold(uint256 newThresholdValue) private {\n        require(newThresholdValue != 0, \"Threshold cant be 0\");\n        require(\n            newThresholdValue <= signerLength,\n            \"Threshold cant be bigger then length of signers\"\n        );\n\n        signerThreshold = newThresholdValue;\n        emit newThreshold(newThresholdValue);\n    }\n\n    function addSigners(address newSignerValue) private {\n        // check for duplicate signer\n        for (uint256 i = 0; i < signers.length; i++) {\n            if (signers[i] == newSignerValue) {\n                revert(\"Signer already exists\");\n            }\n        }\n\n        signers.push(newSignerValue);\n        signerLength++;\n        isSigner[newSignerValue] = true;\n        emit newSigner(newSignerValue);\n    }\n\n    function updatePayoutAddress(address newPayoutAddressValue) private {\n        payoutAddress = payable(newPayoutAddressValue);\n        emit newPayoutAddress(newPayoutAddressValue);\n    }\n\n    function removeSigner(address toRemove) internal {\n        require(isSigner[toRemove], \"Address to remove has to be a signer\");\n        require(\n            signers.length - 1 >= signerThreshold,\n            \"Less signers than threshold\"\n        );\n\n        for (uint256 i = 0; i < signers.length; i++) {\n            if (signers[i] == toRemove) {\n                delete signers[i];\n                signerLength--;\n                isSigner[toRemove] = false;\n                emit signerRemoved(toRemove);\n            }\n        }\n    }\n\n    //---------------------------subscription functions---------------------------\n\n    function subscribeToFeed(\n        uint256[] memory feedIDs,\n        uint256[] memory durations,\n        address buyer\n    ) external payable {\n        require(feedIDs.length == durations.length, \"Length mismatch\");\n\n        uint256 total;\n        for (uint256 i = 0; i < feedIDs.length; i++) {\n            require(\n                feedList[feedIDs[i]].revenueMode == 1,\n                \"Donation mode turned on\"\n            );\n            require(durations[i] >= 3600, \"Minimum subscription is 1h\");\n\n            if (subscribedTo[buyer][feedIDs[i]] <= block.timestamp) {\n                subscribedTo[buyer][feedIDs[i]] = (block.timestamp +\n                    durations[i]);\n            } else {\n                subscribedTo[buyer][feedIDs[i]] = (subscribedTo[buyer][\n                    feedIDs[i]\n                ] + durations[i]);\n            }\n\n            total += (feedList[feedIDs[i]].feedCost * durations[i]) / 3600;\n        }\n\n        // check if enough payment was sent\n        require(\n            msg.value >= total,\n            \"Not enough funds sent to cover oracle fees\"\n        );\n\n        // send feeds to router\n        address payable conjureRouter = IConjureFactory(factoryContract)\n            .getConjureRouter();\n        IConjureRouter(conjureRouter).deposit{ value: msg.value / 50 }();\n        emit routerFeeTaken(msg.value / 50, msg.sender);\n    }\n\n    function buyPass(address buyer, uint256 duration) external payable {\n        require(subscriptionPassPrice != 0, \"Subscription Pass turned off\");\n        require(duration >= 3600, \"Minimum subscription is 1h\");\n        require(\n            msg.value >= (subscriptionPassPrice * duration) / 86400,\n            \"Not enough payment\"\n        );\n\n        if (hasPass[buyer] <= block.timestamp) {\n            hasPass[buyer] = block.timestamp + duration;\n        } else {\n            hasPass[buyer] = hasPass[buyer] + duration;\n        }\n\n        address payable conjureRouter = IConjureFactory(factoryContract)\n            .getConjureRouter();\n        IConjureRouter(conjureRouter).deposit{ value: msg.value / 50 }();\n        emit routerFeeTaken(msg.value / 50, msg.sender);\n    }\n\n    function supportFeeds(uint256[] memory feedIds, uint256[] memory values)\n        external\n        payable\n    {\n        require(feedIds.length == values.length, \"Length mismatch\");\n\n        uint256 total;\n        for (uint256 i = 0; i < feedIds.length; i++) {\n            require(\n                feedList[feedIds[i]].revenueMode == 0,\n                \"Subscription mode turned on\"\n            );\n            feedSupport[feedIds[i]] = feedSupport[feedIds[i]] + values[i];\n            total += values[i];\n\n            emit feedSupported(feedIds[i], values[i]);\n        }\n\n        require(msg.value >= total, \"Msg.value does not meet support values\");\n\n        address payable conjureRouter = IConjureFactory(factoryContract)\n            .getConjureRouter();\n        IConjureRouter(conjureRouter).deposit{ value: total / 100 }();\n        emit routerFeeTaken(total / 100, msg.sender);\n    }\n}\n",
  "sourcePath": "/home/francesco/workspace/smart-contracts/ETHGlobal-2021/Strangers-United/blockchain/smart-contract/contracts/OpenOracleFramework.sol",
  "compiler": {
    "name": "solc",
    "version": "0.8.6+commit.11564f7e.Emscripten.clang"
  },
  "schemaVersion": "3.4.2",
  "updatedAt": "2021-10-05T10:32:38.579Z",
  "devdoc": {
    "kind": "dev",
    "methods": {
      "getFeed(uint256)": {
        "details": "getFeed function lets anyone call the oracle to receive data (maybe pay an optional fee)",
        "params": {
          "feedID": "the array of feedId"
        }
      },
      "getFeeds(uint256[])": {
        "details": "getFeeds function lets anyone call the oracle to receive data (maybe pay an optional fee)",
        "params": {
          "feedIDs": "the array of feedIds"
        }
      },
      "submitFeed(uint256[],uint256[])": {
        "details": "submitFeed function lets a signer submit as many feeds as they want to",
        "params": {
          "feedIDs": "the array of feedIds",
          "values": "the array of values"
        }
      }
    },
    "version": 1
  },
  "userdoc": {
    "kind": "user",
    "methods": {},
    "version": 1
  }
}